{
  "_format": "hh-sol-artifact-1",
  "contractName": "Notary",
  "sourceName": "contracts/Notary.sol",
  "abi": [
    {
      "anonymous": false,
      "inputs": [
        {
          "indexed": true,
          "internalType": "bytes32",
          "name": "documentHash",
          "type": "bytes32"
        },
        {
          "indexed": true,
          "internalType": "address",
          "name": "recorder",
          "type": "address"
        },
        {
          "indexed": false,
          "internalType": "uint256",
          "name": "timestamp",
          "type": "uint256"
        }
      ],
      "name": "DocumentHashRecorded",
      "type": "event"
    },
    {
      "anonymous": false,
      "inputs": [
        {
          "indexed": true,
          "internalType": "address",
          "name": "previousOwner",
          "type": "address"
        },
        {
          "indexed": true,
          "internalType": "address",
          "name": "newOwner",
          "type": "address"
        }
      ],
      "name": "OwnershipTransferred",
      "type": "event"
    },
    {
      "inputs": [
        {
          "internalType": "bytes32",
          "name": "documentHash",
          "type": "bytes32"
        }
      ],
      "name": "getDocumentTimestamp",
      "outputs": [
        {
          "internalType": "uint256",
          "name": "",
          "type": "uint256"
        }
      ],
      "stateMutability": "view",
      "type": "function"
    },
    {
      "inputs": [],
      "name": "owner",
      "outputs": [
        {
          "internalType": "address",
          "name": "",
          "type": "address"
        }
      ],
      "stateMutability": "view",
      "type": "function"
    },
    {
      "inputs": [
        {
          "internalType": "bytes32",
          "name": "documentHash",
          "type": "bytes32"
        }
      ],
      "name": "recordDocument",
      "outputs": [],
      "stateMutability": "nonpayable",
      "type": "function"
    },
    {
      "inputs": [],
      "name": "renounceOwnership",
      "outputs": [],
      "stateMutability": "nonpayable",
      "type": "function"
    },
    {
      "inputs": [
        {
          "internalType": "address",
          "name": "newOwner",
          "type": "address"
        }
      ],
      "name": "transferOwnership",
      "outputs": [],
      "stateMutability": "nonpayable",
      "type": "function"
    }
  ],
  "bytecode": "0x608060405234801561001057600080fd5b5061002d61002261003260201b60201c565b61003a60201b60201c565b6100fe565b600033905090565b60008060009054906101000a900473ffffffffffffffffffffffffffffffffffffffff169050816000806101000a81548173ffffffffffffffffffffffffffffffffffffffff021916908373ffffffffffffffffffffffffffffffffffffffff1602179055508173ffffffffffffffffffffffffffffffffffffffff168173ffffffffffffffffffffffffffffffffffffffff167f8be0079c531659141344cd1fd0a4f28419497f9722a3daafe3b4186f6b6457e060405160405180910390a35050565b6106fc8061010d6000396000f3fe608060405234801561001057600080fd5b50600436106100575760003560e01c8063433d2ecb1461005c578063715018a6146100785780638da5cb5b1461008257806395f2f9f4146100a0578063f2fde38b146100d0575b600080fd5b6100766004803603810190610071919061040f565b6100ec565b005b6100806101ac565b005b61008a6101c0565b604051610097919061047d565b60405180910390f35b6100ba60048036038101906100b5919061040f565b6101e9565b6040516100c791906104b1565b60405180910390f35b6100ea60048036038101906100e591906104f8565b610206565b005b6000600160008381526020019081526020016000205414610142576040517f08c379a0000000000000000000000000000000000000000000000000000000008152600401610139906105a8565b60405180910390fd5b4260016000838152602001908152602001600020819055503373ffffffffffffffffffffffffffffffffffffffff16817ff41ab2a1c3ba7329675bf0b5c2335b1948f6bc15ead3953c8c1a81b15290608d426040516101a191906104b1565b60405180910390a350565b6101b461028a565b6101be6000610308565b565b60008060009054906101000a900473ffffffffffffffffffffffffffffffffffffffff16905090565b600060016000838152602001908152602001600020549050919050565b61020e61028a565b600073ffffffffffffffffffffffffffffffffffffffff168173ffffffffffffffffffffffffffffffffffffffff16141561027e576040517f08c379a00000000000000000000000000000000000000000000000000000000081526004016102759061063a565b60405180910390fd5b61028781610308565b50565b6102926103cc565b73ffffffffffffffffffffffffffffffffffffffff166102b06101c0565b73ffffffffffffffffffffffffffffffffffffffff1614610306576040517f08c379a00000000000000000000000000000000000000000000000000000000081526004016102fd906106a6565b60405180910390fd5b565b60008060009054906101000a900473ffffffffffffffffffffffffffffffffffffffff169050816000806101000a81548173ffffffffffffffffffffffffffffffffffffffff021916908373ffffffffffffffffffffffffffffffffffffffff1602179055508173ffffffffffffffffffffffffffffffffffffffff168173ffffffffffffffffffffffffffffffffffffffff167f8be0079c531659141344cd1fd0a4f28419497f9722a3daafe3b4186f6b6457e060405160405180910390a35050565b600033905090565b600080fd5b6000819050919050565b6103ec816103d9565b81146103f757600080fd5b50565b600081359050610409816103e3565b92915050565b600060208284031215610425576104246103d4565b5b6000610433848285016103fa565b91505092915050565b600073ffffffffffffffffffffffffffffffffffffffff82169050919050565b60006104678261043c565b9050919050565b6104778161045c565b82525050565b6000602082019050610492600083018461046e565b92915050565b6000819050919050565b6104ab81610498565b82525050565b60006020820190506104c660008301846104a2565b92915050565b6104d58161045c565b81146104e057600080fd5b50565b6000813590506104f2816104cc565b92915050565b60006020828403121561050e5761050d6103d4565b5b600061051c848285016104e3565b91505092915050565b600082825260208201905092915050565b7f4e6f746172793a20446f63756d656e74206861736820616c726561647920726560008201527f636f726465642e00000000000000000000000000000000000000000000000000602082015250565b6000610592602783610525565b915061059d82610536565b604082019050919050565b600060208201905081810360008301526105c181610585565b9050919050565b7f4f776e61626c653a206e6577206f776e657220697320746865207a65726f206160008201527f6464726573730000000000000000000000000000000000000000000000000000602082015250565b6000610624602683610525565b915061062f826105c8565b604082019050919050565b6000602082019050818103600083015261065381610617565b9050919050565b7f4f776e61626c653a2063616c6c6572206973206e6f7420746865206f776e6572600082015250565b6000610690602083610525565b915061069b8261065a565b602082019050919050565b600060208201905081810360008301526106bf81610683565b905091905056fea2646970667358221220e811000ebd19ff2fe8c13de82dbf6b0f784276f43d549d26f6d48dba0b63ce4764736f6c63430008090033",
  "linkReferences": {},
  "deployedLinkReferences": {}
}