{
  "_format": "hh-sol-artifact-1",
  "contractName": "PaymentEscrow",
  "sourceName": "contracts/PaymentEscrow.sol",
  "abi": [
    {
      "anonymous": false,
      "inputs": [
        {
          "indexed": true,
          "internalType": "uint256",
          "name": "escrowId",
          "type": "uint256"
        },
        {
          "indexed": true,
          "internalType": "address",
          "name": "payer",
          "type": "address"
        },
        {
          "indexed": true,
          "internalType": "address",
          "name": "payee",
          "type": "address"
        },
        {
          "indexed": false,
          "internalType": "uint256",
          "name": "amount",
          "type": "uint256"
        }
      ],
      "name": "EscrowCreated",
      "type": "event"
    },
    {
      "anonymous": false,
      "inputs": [
        {
          "indexed": true,
          "internalType": "uint256",
          "name": "escrowId",
          "type": "uint256"
        }
      ],
      "name": "EscrowRefunded",
      "type": "event"
    },
    {
      "anonymous": false,
      "inputs": [
        {
          "indexed": true,
          "internalType": "uint256",
          "name": "escrowId",
          "type": "uint256"
        }
      ],
      "name": "EscrowReleased",
      "type": "event"
    },
    {
      "anonymous": false,
      "inputs": [
        {
          "indexed": true,
          "internalType": "address",
          "name": "previousOwner",
          "type": "address"
        },
        {
          "indexed": true,
          "internalType": "address",
          "name": "newOwner",
          "type": "address"
        }
      ],
      "name": "OwnershipTransferred",
      "type": "event"
    },
    {
      "inputs": [
        {
          "internalType": "address",
          "name": "payee",
          "type": "address"
        }
      ],
      "name": "createEscrow",
      "outputs": [
        {
          "internalType": "uint256",
          "name": "",
          "type": "uint256"
        }
      ],
      "stateMutability": "payable",
      "type": "function"
    },
    {
      "inputs": [],
      "name": "escrowCount",
      "outputs": [
        {
          "internalType": "uint256",
          "name": "",
          "type": "uint256"
        }
      ],
      "stateMutability": "view",
      "type": "function"
    },
    {
      "inputs": [
        {
          "internalType": "uint256",
          "name": "",
          "type": "uint256"
        }
      ],
      "name": "escrows",
      "outputs": [
        {
          "internalType": "address",
          "name": "payer",
          "type": "address"
        },
        {
          "internalType": "address",
          "name": "payee",
          "type": "address"
        },
        {
          "internalType": "uint256",
          "name": "amount",
          "type": "uint256"
        },
        {
          "internalType": "bool",
          "name": "isReleased",
          "type": "bool"
        },
        {
          "internalType": "bool",
          "name": "isRefunded",
          "type": "bool"
        }
      ],
      "stateMutability": "view",
      "type": "function"
    },
    {
      "inputs": [
        {
          "internalType": "uint256",
          "name": "escrowId",
          "type": "uint256"
        }
      ],
      "name": "getEscrow",
      "outputs": [
        {
          "internalType": "address",
          "name": "payer",
          "type": "address"
        },
        {
          "internalType": "address",
          "name": "payee",
          "type": "address"
        },
        {
          "internalType": "uint256",
          "name": "amount",
          "type": "uint256"
        },
        {
          "internalType": "bool",
          "name": "isReleased",
          "type": "bool"
        },
        {
          "internalType": "bool",
          "name": "isRefunded",
          "type": "bool"
        }
      ],
      "stateMutability": "view",
      "type": "function"
    },
    {
      "inputs": [],
      "name": "owner",
      "outputs": [
        {
          "internalType": "address",
          "name": "",
          "type": "address"
        }
      ],
      "stateMutability": "view",
      "type": "function"
    },
    {
      "inputs": [
        {
          "internalType": "uint256",
          "name": "escrowId",
          "type": "uint256"
        }
      ],
      "name": "refundEscrow",
      "outputs": [],
      "stateMutability": "nonpayable",
      "type": "function"
    },
    {
      "inputs": [
        {
          "internalType": "uint256",
          "name": "escrowId",
          "type": "uint256"
        }
      ],
      "name": "releaseEscrow",
      "outputs": [],
      "stateMutability": "nonpayable",
      "type": "function"
    },
    {
      "inputs": [],
      "name": "renounceOwnership",
      "outputs": [],
      "stateMutability": "nonpayable",
      "type": "function"
    },
    {
      "inputs": [
        {
          "internalType": "address",
          "name": "newOwner",
          "type": "address"
        }
      ],
      "name": "transferOwnership",
      "outputs": [],
      "stateMutability": "nonpayable",
      "type": "function"
    }
  ],
  "bytecode": "0x608060405234801561001057600080fd5b5061002d61002261003260201b60201c565b61003a60201b60201c565b6100fe565b600033905090565b60008060009054906101000a900473ffffffffffffffffffffffffffffffffffffffff169050816000806101000a81548173ffffffffffffffffffffffffffffffffffffffff021916908373ffffffffffffffffffffffffffffffffffffffff1602179055508173ffffffffffffffffffffffffffffffffffffffff168173ffffffffffffffffffffffffffffffffffffffff167f8be0079c531659141344cd1fd0a4f28419497f9722a3daafe3b4186f6b6457e060405160405180910390a35050565b6113378061010d6000396000f3fe6080604052600436106100865760003560e01c80637d19e596116100595780637d19e596146101375780638da5cb5b14610178578063ed653164146101a3578063f2fde38b146101cc578063f6a8419e146101f557610086565b8063012f52ee1461008b578063356f9dfd146100cc578063675ac67a146100f5578063715018a614610120575b600080fd5b34801561009757600080fd5b506100b260048036038101906100ad9190610c92565b610225565b6040516100c3959493929190610d2a565b60405180910390f35b3480156100d857600080fd5b506100f360048036038101906100ee9190610c92565b6102b5565b005b34801561010157600080fd5b5061010a6104e2565b6040516101179190610d7d565b60405180910390f35b34801561012c57600080fd5b506101356104e8565b005b34801561014357600080fd5b5061015e60048036038101906101599190610c92565b6104fc565b60405161016f959493929190610d2a565b60405180910390f35b34801561018457600080fd5b5061018d6105a1565b60405161019a9190610d98565b60405180910390f35b3480156101af57600080fd5b506101ca60048036038101906101c59190610c92565b6105ca565b005b3480156101d857600080fd5b506101f360048036038101906101ee9190610ddf565b6107f7565b005b61020f600480360381019061020a9190610ddf565b61087b565b60405161021c9190610d7d565b60405180910390f35b60026020528060005260406000206000915090508060000160009054906101000a900473ffffffffffffffffffffffffffffffffffffffff16908060010160009054906101000a900473ffffffffffffffffffffffffffffffffffffffff16908060020154908060030160009054906101000a900460ff16908060030160019054906101000a900460ff16905085565b6102bd610b0d565b60006002600083815260200190815260200160002090508060030160009054906101000a900460ff1615610326576040517f08c379a000000000000000000000000000000000000000000000000000000000815260040161031d90610e69565b60405180910390fd5b8060030160019054906101000a900460ff1615610378576040517f08c379a000000000000000000000000000000000000000000000000000000000815260040161036f90610ed5565b60405180910390fd5b60008160020154116103bf576040517f08c379a00000000000000000000000000000000000000000000000000000000081526004016103b690610f41565b60405180910390fd5b60018160030160016101000a81548160ff02191690831515021790555060008160000160009054906101000a900473ffffffffffffffffffffffffffffffffffffffff1673ffffffffffffffffffffffffffffffffffffffff16826002015460405161042a90610f92565b60006040518083038185875af1925050503d8060008114610467576040519150601f19603f3d011682016040523d82523d6000602084013e61046c565b606091505b50509050806104b0576040517f08c379a00000000000000000000000000000000000000000000000000000000081526004016104a790610ff3565b60405180910390fd5b827f2babb5cd458b6d41108d6d793a75e29ca524e7caa20e2da6c994462010920a7260405160405180910390a2505050565b60015481565b6104f0610b0d565b6104fa6000610b8b565b565b6000806000806000806002600088815260200190815260200160002090508060000160009054906101000a900473ffffffffffffffffffffffffffffffffffffffff168160010160009054906101000a900473ffffffffffffffffffffffffffffffffffffffff1682600201548360030160009054906101000a900460ff168460030160019054906101000a900460ff16955095509550955095505091939590929450565b60008060009054906101000a900473ffffffffffffffffffffffffffffffffffffffff16905090565b6105d2610b0d565b60006002600083815260200190815260200160002090508060030160009054906101000a900460ff161561063b576040517f08c379a000000000000000000000000000000000000000000000000000000000815260040161063290610e69565b60405180910390fd5b8060030160019054906101000a900460ff161561068d576040517f08c379a000000000000000000000000000000000000000000000000000000000815260040161068490610ed5565b60405180910390fd5b60008160020154116106d4576040517f08c379a00000000000000000000000000000000000000000000000000000000081526004016106cb90610f41565b60405180910390fd5b60018160030160006101000a81548160ff02191690831515021790555060008160010160009054906101000a900473ffffffffffffffffffffffffffffffffffffffff1673ffffffffffffffffffffffffffffffffffffffff16826002015460405161073f90610f92565b60006040518083038185875af1925050503d806000811461077c576040519150601f19603f3d011682016040523d82523d6000602084013e610781565b606091505b50509050806107c5576040517f08c379a00000000000000000000000000000000000000000000000000000000081526004016107bc9061105f565b60405180910390fd5b827f69833829d5691ae09424af7d16f73adf033451149ea9c2fc6fcb4c44108eef6760405160405180910390a2505050565b6107ff610b0d565b600073ffffffffffffffffffffffffffffffffffffffff168173ffffffffffffffffffffffffffffffffffffffff16141561086f576040517f08c379a0000000000000000000000000000000000000000000000000000000008152600401610866906110f1565b60405180910390fd5b61087881610b8b565b50565b60008034116108bf576040517f08c379a00000000000000000000000000000000000000000000000000000000081526004016108b69061115d565b60405180910390fd5b600073ffffffffffffffffffffffffffffffffffffffff168273ffffffffffffffffffffffffffffffffffffffff16141561092f576040517f08c379a0000000000000000000000000000000000000000000000000000000008152600401610926906111c9565b60405180910390fd5b6040518060a001604052803373ffffffffffffffffffffffffffffffffffffffff1681526020018373ffffffffffffffffffffffffffffffffffffffff1681526020013481526020016000151581526020016000151581525060026000600154815260200190815260200160002060008201518160000160006101000a81548173ffffffffffffffffffffffffffffffffffffffff021916908373ffffffffffffffffffffffffffffffffffffffff16021790555060208201518160010160006101000a81548173ffffffffffffffffffffffffffffffffffffffff021916908373ffffffffffffffffffffffffffffffffffffffff1602179055506040820151816002015560608201518160030160006101000a81548160ff02191690831515021790555060808201518160030160016101000a81548160ff0219169083151502179055509050508173ffffffffffffffffffffffffffffffffffffffff163373ffffffffffffffffffffffffffffffffffffffff166001547f9405ad0a6208539879349284d71265479b1623846f70303da1f9890d6e8c10a734604051610ad89190610d7d565b60405180910390a460016000815480929190610af390611218565b919050555060018054610b069190611261565b9050919050565b610b15610c4f565b73ffffffffffffffffffffffffffffffffffffffff16610b336105a1565b73ffffffffffffffffffffffffffffffffffffffff1614610b89576040517f08c379a0000000000000000000000000000000000000000000000000000000008152600401610b80906112e1565b60405180910390fd5b565b60008060009054906101000a900473ffffffffffffffffffffffffffffffffffffffff169050816000806101000a81548173ffffffffffffffffffffffffffffffffffffffff021916908373ffffffffffffffffffffffffffffffffffffffff1602179055508173ffffffffffffffffffffffffffffffffffffffff168173ffffffffffffffffffffffffffffffffffffffff167f8be0079c531659141344cd1fd0a4f28419497f9722a3daafe3b4186f6b6457e060405160405180910390a35050565b600033905090565b600080fd5b6000819050919050565b610c6f81610c5c565b8114610c7a57600080fd5b50565b600081359050610c8c81610c66565b92915050565b600060208284031215610ca857610ca7610c57565b5b6000610cb684828501610c7d565b91505092915050565b600073ffffffffffffffffffffffffffffffffffffffff82169050919050565b6000610cea82610cbf565b9050919050565b610cfa81610cdf565b82525050565b610d0981610c5c565b82525050565b60008115159050919050565b610d2481610d0f565b82525050565b600060a082019050610d3f6000830188610cf1565b610d4c6020830187610cf1565b610d596040830186610d00565b610d666060830185610d1b565b610d736080830184610d1b565b9695505050505050565b6000602082019050610d926000830184610d00565b92915050565b6000602082019050610dad6000830184610cf1565b92915050565b610dbc81610cdf565b8114610dc757600080fd5b50565b600081359050610dd981610db3565b92915050565b600060208284031215610df557610df4610c57565b5b6000610e0384828501610dca565b91505092915050565b600082825260208201905092915050565b7f416c72656164792072656c656173656400000000000000000000000000000000600082015250565b6000610e53601083610e0c565b9150610e5e82610e1d565b602082019050919050565b60006020820190508181036000830152610e8281610e46565b9050919050565b7f416c726561647920726566756e64656400000000000000000000000000000000600082015250565b6000610ebf601083610e0c565b9150610eca82610e89565b602082019050919050565b60006020820190508181036000830152610eee81610eb2565b9050919050565b7f4e6f2066756e6473000000000000000000000000000000000000000000000000600082015250565b6000610f2b600883610e0c565b9150610f3682610ef5565b602082019050919050565b60006020820190508181036000830152610f5a81610f1e565b9050919050565b600081905092915050565b50565b6000610f7c600083610f61565b9150610f8782610f6c565b600082019050919050565b6000610f9d82610f6f565b9150819050919050565b7f4661696c656420746f20726566756e64204d4154494300000000000000000000600082015250565b6000610fdd601683610e0c565b9150610fe882610fa7565b602082019050919050565b6000602082019050818103600083015261100c81610fd0565b9050919050565b7f4661696c656420746f2073656e64204d41544943000000000000000000000000600082015250565b6000611049601483610e0c565b915061105482611013565b602082019050919050565b600060208201905081810360008301526110788161103c565b9050919050565b7f4f776e61626c653a206e6577206f776e657220697320746865207a65726f206160008201527f6464726573730000000000000000000000000000000000000000000000000000602082015250565b60006110db602683610e0c565b91506110e68261107f565b604082019050919050565b6000602082019050818103600083015261110a816110ce565b9050919050565b7f4e6f204d415449432073656e7400000000000000000000000000000000000000600082015250565b6000611147600d83610e0c565b915061115282611111565b602082019050919050565b600060208201905081810360008301526111768161113a565b9050919050565b7f496e76616c696420706179656500000000000000000000000000000000000000600082015250565b60006111b3600d83610e0c565b91506111be8261117d565b602082019050919050565b600060208201905081810360008301526111e2816111a6565b9050919050565b7f4e487b7100000000000000000000000000000000000000000000000000000000600052601160045260246000fd5b600061122382610c5c565b91507fffffffffffffffffffffffffffffffffffffffffffffffffffffffffffffffff821415611256576112556111e9565b5b600182019050919050565b600061126c82610c5c565b915061127783610c5c565b92508282101561128a576112896111e9565b5b828203905092915050565b7f4f776e61626c653a2063616c6c6572206973206e6f7420746865206f776e6572600082015250565b60006112cb602083610e0c565b91506112d682611295565b602082019050919050565b600060208201905081810360008301526112fa816112be565b905091905056fea264697066735822122078076c00250979e988def6e082b04f4ae76b0f798a0b8dab0c7f76bffb4bcb0264736f6c63430008090033",
  "linkReferences": {},
  "deployedLinkReferences": {}
}