{
  "_format": "hh-sol-artifact-1",
  "contractName": "ReceiptNFT",
  "sourceName": "contracts/ReceiptNFT.sol",
  "abi": [
    {
      "inputs": [],
      "stateMutability": "nonpayable",
      "type": "constructor"
    },
    {
      "anonymous": false,
      "inputs": [
        {
          "indexed": true,
          "internalType": "address",
          "name": "owner",
          "type": "address"
        },
        {
          "indexed": true,
          "internalType": "address",
          "name": "approved",
          "type": "address"
        },
        {
          "indexed": true,
          "internalType": "uint256",
          "name": "tokenId",
          "type": "uint256"
        }
      ],
      "name": "Approval",
      "type": "event"
    },
    {
      "anonymous": false,
      "inputs": [
        {
          "indexed": true,
          "internalType": "address",
          "name": "owner",
          "type": "address"
        },
        {
          "indexed": true,
          "internalType": "address",
          "name": "operator",
          "type": "address"
        },
        {
          "indexed": false,
          "internalType": "bool",
          "name": "approved",
          "type": "bool"
        }
      ],
      "name": "ApprovalForAll",
      "type": "event"
    },
    {
      "anonymous": false,
      "inputs": [
        {
          "indexed": false,
          "internalType": "uint256",
          "name": "_fromTokenId",
          "type": "uint256"
        },
        {
          "indexed": false,
          "internalType": "uint256",
          "name": "_toTokenId",
          "type": "uint256"
        }
      ],
      "name": "BatchMetadataUpdate",
      "type": "event"
    },
    {
      "anonymous": false,
      "inputs": [
        {
          "indexed": false,
          "internalType": "uint256",
          "name": "_tokenId",
          "type": "uint256"
        }
      ],
      "name": "MetadataUpdate",
      "type": "event"
    },
    {
      "anonymous": false,
      "inputs": [
        {
          "indexed": true,
          "internalType": "address",
          "name": "previousOwner",
          "type": "address"
        },
        {
          "indexed": true,
          "internalType": "address",
          "name": "newOwner",
          "type": "address"
        }
      ],
      "name": "OwnershipTransferred",
      "type": "event"
    },
    {
      "anonymous": false,
      "inputs": [
        {
          "indexed": true,
          "internalType": "address",
          "name": "from",
          "type": "address"
        },
        {
          "indexed": true,
          "internalType": "address",
          "name": "to",
          "type": "address"
        },
        {
          "indexed": true,
          "internalType": "uint256",
          "name": "tokenId",
          "type": "uint256"
        }
      ],
      "name": "Transfer",
      "type": "event"
    },
    {
      "inputs": [
        {
          "internalType": "address",
          "name": "to",
          "type": "address"
        },
        {
          "internalType": "uint256",
          "name": "tokenId",
          "type": "uint256"
        }
      ],
      "name": "approve",
      "outputs": [],
      "stateMutability": "nonpayable",
      "type": "function"
    },
    {
      "inputs": [
        {
          "internalType": "address",
          "name": "owner",
          "type": "address"
        }
      ],
      "name": "balanceOf",
      "outputs": [
        {
          "internalType": "uint256",
          "name": "",
          "type": "uint256"
        }
      ],
      "stateMutability": "view",
      "type": "function"
    },
    {
      "inputs": [
        {
          "internalType": "uint256",
          "name": "",
          "type": "uint256"
        }
      ],
      "name": "documentHashes",
      "outputs": [
        {
          "internalType": "bytes32",
          "name": "",
          "type": "bytes32"
        }
      ],
      "stateMutability": "view",
      "type": "function"
    },
    {
      "inputs": [
        {
          "internalType": "uint256",
          "name": "tokenId",
          "type": "uint256"
        }
      ],
      "name": "getApproved",
      "outputs": [
        {
          "internalType": "address",
          "name": "",
          "type": "address"
        }
      ],
      "stateMutability": "view",
      "type": "function"
    },
    {
      "inputs": [
        {
          "internalType": "uint256",
          "name": "tokenId",
          "type": "uint256"
        }
      ],
      "name": "getDocumentHash",
      "outputs": [
        {
          "internalType": "bytes32",
          "name": "",
          "type": "bytes32"
        }
      ],
      "stateMutability": "view",
      "type": "function"
    },
    {
      "inputs": [
        {
          "internalType": "address",
          "name": "owner",
          "type": "address"
        },
        {
          "internalType": "address",
          "name": "operator",
          "type": "address"
        }
      ],
      "name": "isApprovedForAll",
      "outputs": [
        {
          "internalType": "bool",
          "name": "",
          "type": "bool"
        }
      ],
      "stateMutability": "view",
      "type": "function"
    },
    {
      "inputs": [
        {
          "internalType": "address",
          "name": "to",
          "type": "address"
        },
        {
          "internalType": "bytes32",
          "name": "documentHash",
          "type": "bytes32"
        },
        {
          "internalType": "string",
          "name": "tokenURI",
          "type": "string"
        }
      ],
      "name": "mintReceipt",
      "outputs": [
        {
          "internalType": "uint256",
          "name": "",
          "type": "uint256"
        }
      ],
      "stateMutability": "nonpayable",
      "type": "function"
    },
    {
      "inputs": [],
      "name": "name",
      "outputs": [
        {
          "internalType": "string",
          "name": "",
          "type": "string"
        }
      ],
      "stateMutability": "view",
      "type": "function"
    },
    {
      "inputs": [],
      "name": "nextTokenId",
      "outputs": [
        {
          "internalType": "uint256",
          "name": "",
          "type": "uint256"
        }
      ],
      "stateMutability": "view",
      "type": "function"
    },
    {
      "inputs": [],
      "name": "owner",
      "outputs": [
        {
          "internalType": "address",
          "name": "",
          "type": "address"
        }
      ],
      "stateMutability": "view",
      "type": "function"
    },
    {
      "inputs": [
        {
          "internalType": "uint256",
          "name": "tokenId",
          "type": "uint256"
        }
      ],
      "name": "ownerOf",
      "outputs": [
        {
          "internalType": "address",
          "name": "",
          "type": "address"
        }
      ],
      "stateMutability": "view",
      "type": "function"
    },
    {
      "inputs": [],
      "name": "renounceOwnership",
      "outputs": [],
      "stateMutability": "nonpayable",
      "type": "function"
    },
    {
      "inputs": [
        {
          "internalType": "address",
          "name": "from",
          "type": "address"
        },
        {
          "internalType": "address",
          "name": "to",
          "type": "address"
        },
        {
          "internalType": "uint256",
          "name": "tokenId",
          "type": "uint256"
        }
      ],
      "name": "safeTransferFrom",
      "outputs": [],
      "stateMutability": "nonpayable",
      "type": "function"
    },
    {
      "inputs": [
        {
          "internalType": "address",
          "name": "from",
          "type": "address"
        },
        {
          "internalType": "address",
          "name": "to",
          "type": "address"
        },
        {
          "internalType": "uint256",
          "name": "tokenId",
          "type": "uint256"
        },
        {
          "internalType": "bytes",
          "name": "data",
          "type": "bytes"
        }
      ],
      "name": "safeTransferFrom",
      "outputs": [],
      "stateMutability": "nonpayable",
      "type": "function"
    },
    {
      "inputs": [
        {
          "internalType": "address",
          "name": "operator",
          "type": "address"
        },
        {
          "internalType": "bool",
          "name": "approved",
          "type": "bool"
        }
      ],
      "name": "setApprovalForAll",
      "outputs": [],
      "stateMutability": "nonpayable",
      "type": "function"
    },
    {
      "inputs": [
        {
          "internalType": "bytes4",
          "name": "interfaceId",
          "type": "bytes4"
        }
      ],
      "name": "supportsInterface",
      "outputs": [
        {
          "internalType": "bool",
          "name": "",
          "type": "bool"
        }
      ],
      "stateMutability": "view",
      "type": "function"
    },
    {
      "inputs": [],
      "name": "symbol",
      "outputs": [
        {
          "internalType": "string",
          "name": "",
          "type": "string"
        }
      ],
      "stateMutability": "view",
      "type": "function"
    },
    {
      "inputs": [
        {
          "internalType": "uint256",
          "name": "tokenId",
          "type": "uint256"
        }
      ],
      "name": "tokenURI",
      "outputs": [
        {
          "internalType": "string",
          "name": "",
          "type": "string"
        }
      ],
      "stateMutability": "view",
      "type": "function"
    },
    {
      "inputs": [
        {
          "internalType": "address",
          "name": "from",
          "type": "address"
        },
        {
          "internalType": "address",
          "name": "to",
          "type": "address"
        },
        {
          "internalType": "uint256",
          "name": "tokenId",
          "type": "uint256"
        }
      ],
      "name": "transferFrom",
      "outputs": [],
      "stateMutability": "nonpayable",
      "type": "function"
    },
    {
      "inputs": [
        {
          "internalType": "address",
          "name": "newOwner",
          "type": "address"
        }
      ],
      "name": "transferOwnership",
      "outputs": [],
      "stateMutability": "nonpayable",
      "type": "function"
    }
  ],
  "bytecode": "0x60806040523480156200001157600080fd5b506040518060400160405280601381526020017f50726f6f664d696e7441492052656365697074000000000000000000000000008152506040518060400160405280600981526020017f504d524543454950540000000000000000000000000000000000000000000000815250816000908051906020019062000096929190620001a6565b508060019080519060200190620000af929190620001a6565b505050620000d2620000c6620000d860201b60201c565b620000e060201b60201c565b620002bb565b600033905090565b6000600760009054906101000a900473ffffffffffffffffffffffffffffffffffffffff16905081600760006101000a81548173ffffffffffffffffffffffffffffffffffffffff021916908373ffffffffffffffffffffffffffffffffffffffff1602179055508173ffffffffffffffffffffffffffffffffffffffff168173ffffffffffffffffffffffffffffffffffffffff167f8be0079c531659141344cd1fd0a4f28419497f9722a3daafe3b4186f6b6457e060405160405180910390a35050565b828054620001b49062000285565b90600052602060002090601f016020900481019282620001d8576000855562000224565b82601f10620001f357805160ff191683800117855562000224565b8280016001018555821562000224579182015b828111156200022357825182559160200191906001019062000206565b5b50905062000233919062000237565b5090565b5b808211156200025257600081600090555060010162000238565b5090565b7f4e487b7100000000000000000000000000000000000000000000000000000000600052602260045260246000fd5b600060028204905060018216806200029e57607f821691505b60208210811415620002b557620002b462000256565b5b50919050565b612ee280620002cb6000396000f3fe608060405234801561001057600080fd5b506004361061012c5760003560e01c80638796ec86116100ad578063a22cb46511610071578063a22cb46514610357578063b88d4fde14610373578063c87b56dd1461038f578063e985e9c5146103bf578063f2fde38b146103ef5761012c565b80638796ec861461028b5780638da5cb5b146102bb5780638e383c6b146102d957806395d89b41146103095780639727e5b0146103275761012c565b806342842e0e116100f457806342842e0e146101e75780636352211e1461020357806370a0823114610233578063715018a61461026357806375794a3c1461026d5761012c565b806301ffc9a71461013157806306fdde0314610161578063081812fc1461017f578063095ea7b3146101af57806323b872dd146101cb575b600080fd5b61014b60048036038101906101469190611e5c565b61040b565b6040516101589190611ea4565b60405180910390f35b61016961046c565b6040516101769190611f58565b60405180910390f35b61019960048036038101906101949190611fb0565b6104fe565b6040516101a6919061201e565b60405180910390f35b6101c960048036038101906101c49190612065565b610544565b005b6101e560048036038101906101e091906120a5565b61065c565b005b61020160048036038101906101fc91906120a5565b6106bc565b005b61021d60048036038101906102189190611fb0565b6106dc565b60405161022a919061201e565b60405180910390f35b61024d600480360381019061024891906120f8565b610763565b60405161025a9190612134565b60405180910390f35b61026b61081b565b005b61027561082f565b6040516102829190612134565b60405180910390f35b6102a560048036038101906102a09190611fb0565b610835565b6040516102b29190612168565b60405180910390f35b6102c3610852565b6040516102d0919061201e565b60405180910390f35b6102f360048036038101906102ee9190611fb0565b61087c565b6040516103009190612168565b60405180910390f35b610311610894565b60405161031e9190611f58565b60405180910390f35b610341600480360381019061033c91906122e4565b610926565b60405161034e9190612134565b60405180910390f35b610371600480360381019061036c919061237f565b610986565b005b61038d60048036038101906103889190612460565b61099c565b005b6103a960048036038101906103a49190611fb0565b6109fe565b6040516103b69190611f58565b60405180910390f35b6103d960048036038101906103d491906124e3565b610b11565b6040516103e69190611ea4565b60405180910390f35b610409600480360381019061040491906120f8565b610ba5565b005b6000634906490660e01b7bffffffffffffffffffffffffffffffffffffffffffffffffffffffff1916827bffffffffffffffffffffffffffffffffffffffffffffffffffffffff19161480610465575061046482610c29565b5b9050919050565b60606000805461047b90612552565b80601f01602080910402602001604051908101604052809291908181526020018280546104a790612552565b80156104f45780601f106104c9576101008083540402835291602001916104f4565b820191906000526020600020905b8154815290600101906020018083116104d757829003601f168201915b5050505050905090565b600061050982610d0b565b6004600083815260200190815260200160002060009054906101000a900473ffffffffffffffffffffffffffffffffffffffff169050919050565b600061054f826106dc565b90508073ffffffffffffffffffffffffffffffffffffffff168373ffffffffffffffffffffffffffffffffffffffff1614156105c0576040517f08c379a00000000000000000000000000000000000000000000000000000000081526004016105b7906125f6565b60405180910390fd5b8073ffffffffffffffffffffffffffffffffffffffff166105df610d56565b73ffffffffffffffffffffffffffffffffffffffff16148061060e575061060d81610608610d56565b610b11565b5b61064d576040517f08c379a000000000000000000000000000000000000000000000000000000000815260040161064490612688565b60405180910390fd5b6106578383610d5e565b505050565b61066d610667610d56565b82610e17565b6106ac576040517f08c379a00000000000000000000000000000000000000000000000000000000081526004016106a39061271a565b60405180910390fd5b6106b7838383610eac565b505050565b6106d78383836040518060200160405280600081525061099c565b505050565b6000806106e8836111a6565b9050600073ffffffffffffffffffffffffffffffffffffffff168173ffffffffffffffffffffffffffffffffffffffff16141561075a576040517f08c379a000000000000000000000000000000000000000000000000000000000815260040161075190612786565b60405180910390fd5b80915050919050565b60008073ffffffffffffffffffffffffffffffffffffffff168273ffffffffffffffffffffffffffffffffffffffff1614156107d4576040517f08c379a00000000000000000000000000000000000000000000000000000000081526004016107cb90612818565b60405180910390fd5b600360008373ffffffffffffffffffffffffffffffffffffffff1673ffffffffffffffffffffffffffffffffffffffff168152602001908152602001600020549050919050565b6108236111e3565b61082d6000611261565b565b60085481565b600060096000838152602001908152602001600020549050919050565b6000600760009054906101000a900473ffffffffffffffffffffffffffffffffffffffff16905090565b60096020528060005260406000206000915090505481565b6060600180546108a390612552565b80601f01602080910402602001604051908101604052809291908181526020018280546108cf90612552565b801561091c5780601f106108f15761010080835404028352916020019161091c565b820191906000526020600020905b8154815290600101906020018083116108ff57829003601f168201915b5050505050905090565b60006109306111e3565b600060085490506109418582611327565b61094b8184611345565b8360096000838152602001908152602001600020819055506008600081548092919061097690612867565b9190505550809150509392505050565b610998610991610d56565b83836113f0565b5050565b6109ad6109a7610d56565b83610e17565b6109ec576040517f08c379a00000000000000000000000000000000000000000000000000000000081526004016109e39061271a565b60405180910390fd5b6109f88484848461155d565b50505050565b6060610a0982610d0b565b6000600660008481526020019081526020016000208054610a2990612552565b80601f0160208091040260200160405190810160405280929190818152602001828054610a5590612552565b8015610aa25780601f10610a7757610100808354040283529160200191610aa2565b820191906000526020600020905b815481529060010190602001808311610a8557829003601f168201915b505050505090506000610ab36115b9565b9050600081511415610ac9578192505050610b0c565b600082511115610afe578082604051602001610ae69291906128ec565b60405160208183030381529060405292505050610b0c565b610b07846115d0565b925050505b919050565b6000600560008473ffffffffffffffffffffffffffffffffffffffff1673ffffffffffffffffffffffffffffffffffffffff16815260200190815260200160002060008373ffffffffffffffffffffffffffffffffffffffff1673ffffffffffffffffffffffffffffffffffffffff16815260200190815260200160002060009054906101000a900460ff16905092915050565b610bad6111e3565b600073ffffffffffffffffffffffffffffffffffffffff168173ffffffffffffffffffffffffffffffffffffffff161415610c1d576040517f08c379a0000000000000000000000000000000000000000000000000000000008152600401610c1490612982565b60405180910390fd5b610c2681611261565b50565b60007f80ac58cd000000000000000000000000000000000000000000000000000000007bffffffffffffffffffffffffffffffffffffffffffffffffffffffff1916827bffffffffffffffffffffffffffffffffffffffffffffffffffffffff19161480610cf457507f5b5e139f000000000000000000000000000000000000000000000000000000007bffffffffffffffffffffffffffffffffffffffffffffffffffffffff1916827bffffffffffffffffffffffffffffffffffffffffffffffffffffffff1916145b80610d045750610d0382611638565b5b9050919050565b610d14816116a2565b610d53576040517f08c379a0000000000000000000000000000000000000000000000000000000008152600401610d4a90612786565b60405180910390fd5b50565b600033905090565b816004600083815260200190815260200160002060006101000a81548173ffffffffffffffffffffffffffffffffffffffff021916908373ffffffffffffffffffffffffffffffffffffffff160217905550808273ffffffffffffffffffffffffffffffffffffffff16610dd1836106dc565b73ffffffffffffffffffffffffffffffffffffffff167f8c5be1e5ebec7d5bd14f71427d1e84f3dd0314c0f7b2291e5b200ac8c7c3b92560405160405180910390a45050565b600080610e23836106dc565b90508073ffffffffffffffffffffffffffffffffffffffff168473ffffffffffffffffffffffffffffffffffffffff161480610e655750610e648185610b11565b5b80610ea357508373ffffffffffffffffffffffffffffffffffffffff16610e8b846104fe565b73ffffffffffffffffffffffffffffffffffffffff16145b91505092915050565b8273ffffffffffffffffffffffffffffffffffffffff16610ecc826106dc565b73ffffffffffffffffffffffffffffffffffffffff1614610f22576040517f08c379a0000000000000000000000000000000000000000000000000000000008152600401610f1990612a14565b60405180910390fd5b600073ffffffffffffffffffffffffffffffffffffffff168273ffffffffffffffffffffffffffffffffffffffff161415610f92576040517f08c379a0000000000000000000000000000000000000000000000000000000008152600401610f8990612aa6565b60405180910390fd5b610f9f83838360016116e3565b8273ffffffffffffffffffffffffffffffffffffffff16610fbf826106dc565b73ffffffffffffffffffffffffffffffffffffffff1614611015576040517f08c379a000000000000000000000000000000000000000000000000000000000815260040161100c90612a14565b60405180910390fd5b6004600082815260200190815260200160002060006101000a81549073ffffffffffffffffffffffffffffffffffffffff02191690556001600360008573ffffffffffffffffffffffffffffffffffffffff1673ffffffffffffffffffffffffffffffffffffffff168152602001908152602001600020600082825403925050819055506001600360008473ffffffffffffffffffffffffffffffffffffffff1673ffffffffffffffffffffffffffffffffffffffff16815260200190815260200160002060008282540192505081905550816002600083815260200190815260200160002060006101000a81548173ffffffffffffffffffffffffffffffffffffffff021916908373ffffffffffffffffffffffffffffffffffffffff160217905550808273ffffffffffffffffffffffffffffffffffffffff168473ffffffffffffffffffffffffffffffffffffffff167fddf252ad1be2c89b69c2b068fc378daa952ba7f163c4a11628f55a4df523b3ef60405160405180910390a46111a183838360016116e9565b505050565b60006002600083815260200190815260200160002060009054906101000a900473ffffffffffffffffffffffffffffffffffffffff169050919050565b6111eb610d56565b73ffffffffffffffffffffffffffffffffffffffff16611209610852565b73ffffffffffffffffffffffffffffffffffffffff161461125f576040517f08c379a000000000000000000000000000000000000000000000000000000000815260040161125690612b12565b60405180910390fd5b565b6000600760009054906101000a900473ffffffffffffffffffffffffffffffffffffffff16905081600760006101000a81548173ffffffffffffffffffffffffffffffffffffffff021916908373ffffffffffffffffffffffffffffffffffffffff1602179055508173ffffffffffffffffffffffffffffffffffffffff168173ffffffffffffffffffffffffffffffffffffffff167f8be0079c531659141344cd1fd0a4f28419497f9722a3daafe3b4186f6b6457e060405160405180910390a35050565b6113418282604051806020016040528060008152506116ef565b5050565b61134e826116a2565b61138d576040517f08c379a000000000000000000000000000000000000000000000000000000000815260040161138490612ba4565b60405180910390fd5b806006600084815260200190815260200160002090805190602001906113b4929190611d4d565b507ff8e1a15aba9398e019f0b49df1a4fde98ee17ae345cb5f6b5e2c27f5033e8ce7826040516113e49190612134565b60405180910390a15050565b8173ffffffffffffffffffffffffffffffffffffffff168373ffffffffffffffffffffffffffffffffffffffff16141561145f576040517f08c379a000000000000000000000000000000000000000000000000000000000815260040161145690612c10565b60405180910390fd5b80600560008573ffffffffffffffffffffffffffffffffffffffff1673ffffffffffffffffffffffffffffffffffffffff16815260200190815260200160002060008473ffffffffffffffffffffffffffffffffffffffff1673ffffffffffffffffffffffffffffffffffffffff16815260200190815260200160002060006101000a81548160ff0219169083151502179055508173ffffffffffffffffffffffffffffffffffffffff168373ffffffffffffffffffffffffffffffffffffffff167f17307eab39ab6107e8899845ad3d59bd9653f200f220920489ca2b5937696c31836040516115509190611ea4565b60405180910390a3505050565b611568848484610eac565b6115748484848461174a565b6115b3576040517f08c379a00000000000000000000000000000000000000000000000000000000081526004016115aa90612ca2565b60405180910390fd5b50505050565b606060405180602001604052806000815250905090565b60606115db82610d0b565b60006115e56115b9565b905060008151116116055760405180602001604052806000815250611630565b8061160f846118e1565b6040516020016116209291906128ec565b6040516020818303038152906040525b915050919050565b60007f01ffc9a7000000000000000000000000000000000000000000000000000000007bffffffffffffffffffffffffffffffffffffffffffffffffffffffff1916827bffffffffffffffffffffffffffffffffffffffffffffffffffffffff1916149050919050565b60008073ffffffffffffffffffffffffffffffffffffffff166116c4836111a6565b73ffffffffffffffffffffffffffffffffffffffff1614159050919050565b50505050565b50505050565b6116f983836119b9565b611706600084848461174a565b611745576040517f08c379a000000000000000000000000000000000000000000000000000000000815260040161173c90612ca2565b60405180910390fd5b505050565b600061176b8473ffffffffffffffffffffffffffffffffffffffff16611bd7565b156118d4578373ffffffffffffffffffffffffffffffffffffffff1663150b7a02611794610d56565b8786866040518563ffffffff1660e01b81526004016117b69493929190612d17565b602060405180830381600087803b1580156117d057600080fd5b505af192505050801561180157506040513d601f19601f820116820180604052508101906117fe9190612d78565b60015b611884573d8060008114611831576040519150601f19603f3d011682016040523d82523d6000602084013e611836565b606091505b5060008151141561187c576040517f08c379a000000000000000000000000000000000000000000000000000000000815260040161187390612ca2565b60405180910390fd5b805181602001fd5b63150b7a0260e01b7bffffffffffffffffffffffffffffffffffffffffffffffffffffffff1916817bffffffffffffffffffffffffffffffffffffffffffffffffffffffff1916149150506118d9565b600190505b949350505050565b6060600060016118f084611bfa565b01905060008167ffffffffffffffff81111561190f5761190e6121b9565b5b6040519080825280601f01601f1916602001820160405280156119415781602001600182028036833780820191505090505b509050600082602001820190505b6001156119ae578080600190039150507f3031323334353637383961626364656600000000000000000000000000000000600a86061a8153600a858161199857611997612da5565b5b04945060008514156119a9576119ae565b61194f565b819350505050919050565b600073ffffffffffffffffffffffffffffffffffffffff168273ffffffffffffffffffffffffffffffffffffffff161415611a29576040517f08c379a0000000000000000000000000000000000000000000000000000000008152600401611a2090612e20565b60405180910390fd5b611a32816116a2565b15611a72576040517f08c379a0000000000000000000000000000000000000000000000000000000008152600401611a6990612e8c565b60405180910390fd5b611a806000838360016116e3565b611a89816116a2565b15611ac9576040517f08c379a0000000000000000000000000000000000000000000000000000000008152600401611ac090612e8c565b60405180910390fd5b6001600360008473ffffffffffffffffffffffffffffffffffffffff1673ffffffffffffffffffffffffffffffffffffffff16815260200190815260200160002060008282540192505081905550816002600083815260200190815260200160002060006101000a81548173ffffffffffffffffffffffffffffffffffffffff021916908373ffffffffffffffffffffffffffffffffffffffff160217905550808273ffffffffffffffffffffffffffffffffffffffff16600073ffffffffffffffffffffffffffffffffffffffff167fddf252ad1be2c89b69c2b068fc378daa952ba7f163c4a11628f55a4df523b3ef60405160405180910390a4611bd36000838360016116e9565b5050565b6000808273ffffffffffffffffffffffffffffffffffffffff163b119050919050565b600080600090507a184f03e93ff9f4daa797ed6e38ed64bf6a1f0100000000000000008310611c58577a184f03e93ff9f4daa797ed6e38ed64bf6a1f0100000000000000008381611c4e57611c4d612da5565b5b0492506040810190505b6d04ee2d6d415b85acef81000000008310611c95576d04ee2d6d415b85acef81000000008381611c8b57611c8a612da5565b5b0492506020810190505b662386f26fc100008310611cc457662386f26fc100008381611cba57611cb9612da5565b5b0492506010810190505b6305f5e1008310611ced576305f5e1008381611ce357611ce2612da5565b5b0492506008810190505b6127108310611d12576127108381611d0857611d07612da5565b5b0492506004810190505b60648310611d355760648381611d2b57611d2a612da5565b5b0492506002810190505b600a8310611d44576001810190505b80915050919050565b828054611d5990612552565b90600052602060002090601f016020900481019282611d7b5760008555611dc2565b82601f10611d9457805160ff1916838001178555611dc2565b82800160010185558215611dc2579182015b82811115611dc1578251825591602001919060010190611da6565b5b509050611dcf9190611dd3565b5090565b5b80821115611dec576000816000905550600101611dd4565b5090565b6000604051905090565b600080fd5b600080fd5b60007fffffffff0000000000000000000000000000000000000000000000000000000082169050919050565b611e3981611e04565b8114611e4457600080fd5b50565b600081359050611e5681611e30565b92915050565b600060208284031215611e7257611e71611dfa565b5b6000611e8084828501611e47565b91505092915050565b60008115159050919050565b611e9e81611e89565b82525050565b6000602082019050611eb96000830184611e95565b92915050565b600081519050919050565b600082825260208201905092915050565b60005b83811015611ef9578082015181840152602081019050611ede565b83811115611f08576000848401525b50505050565b6000601f19601f8301169050919050565b6000611f2a82611ebf565b611f348185611eca565b9350611f44818560208601611edb565b611f4d81611f0e565b840191505092915050565b60006020820190508181036000830152611f728184611f1f565b905092915050565b6000819050919050565b611f8d81611f7a565b8114611f9857600080fd5b50565b600081359050611faa81611f84565b92915050565b600060208284031215611fc657611fc5611dfa565b5b6000611fd484828501611f9b565b91505092915050565b600073ffffffffffffffffffffffffffffffffffffffff82169050919050565b600061200882611fdd565b9050919050565b61201881611ffd565b82525050565b6000602082019050612033600083018461200f565b92915050565b61204281611ffd565b811461204d57600080fd5b50565b60008135905061205f81612039565b92915050565b6000806040838503121561207c5761207b611dfa565b5b600061208a85828601612050565b925050602061209b85828601611f9b565b9150509250929050565b6000806000606084860312156120be576120bd611dfa565b5b60006120cc86828701612050565b93505060206120dd86828701612050565b92505060406120ee86828701611f9b565b9150509250925092565b60006020828403121561210e5761210d611dfa565b5b600061211c84828501612050565b91505092915050565b61212e81611f7a565b82525050565b60006020820190506121496000830184612125565b92915050565b6000819050919050565b6121628161214f565b82525050565b600060208201905061217d6000830184612159565b92915050565b61218c8161214f565b811461219757600080fd5b50565b6000813590506121a981612183565b92915050565b600080fd5b600080fd5b7f4e487b7100000000000000000000000000000000000000000000000000000000600052604160045260246000fd5b6121f182611f0e565b810181811067ffffffffffffffff821117156122105761220f6121b9565b5b80604052505050565b6000612223611df0565b905061222f82826121e8565b919050565b600067ffffffffffffffff82111561224f5761224e6121b9565b5b61225882611f0e565b9050602081019050919050565b82818337600083830152505050565b600061228761228284612234565b612219565b9050828152602081018484840111156122a3576122a26121b4565b5b6122ae848285612265565b509392505050565b600082601f8301126122cb576122ca6121af565b5b81356122db848260208601612274565b91505092915050565b6000806000606084860312156122fd576122fc611dfa565b5b600061230b86828701612050565b935050602061231c8682870161219a565b925050604084013567ffffffffffffffff81111561233d5761233c611dff565b5b612349868287016122b6565b9150509250925092565b61235c81611e89565b811461236757600080fd5b50565b60008135905061237981612353565b92915050565b6000806040838503121561239657612395611dfa565b5b60006123a485828601612050565b92505060206123b58582860161236a565b9150509250929050565b600067ffffffffffffffff8211156123da576123d96121b9565b5b6123e382611f0e565b9050602081019050919050565b60006124036123fe846123bf565b612219565b90508281526020810184848401111561241f5761241e6121b4565b5b61242a848285612265565b509392505050565b600082601f830112612447576124466121af565b5b81356124578482602086016123f0565b91505092915050565b6000806000806080858703121561247a57612479611dfa565b5b600061248887828801612050565b945050602061249987828801612050565b93505060406124aa87828801611f9b565b925050606085013567ffffffffffffffff8111156124cb576124ca611dff565b5b6124d787828801612432565b91505092959194509250565b600080604083850312156124fa576124f9611dfa565b5b600061250885828601612050565b925050602061251985828601612050565b9150509250929050565b7f4e487b7100000000000000000000000000000000000000000000000000000000600052602260045260246000fd5b6000600282049050600182168061256a57607f821691505b6020821081141561257e5761257d612523565b5b50919050565b7f4552433732313a20617070726f76616c20746f2063757272656e74206f776e6560008201527f7200000000000000000000000000000000000000000000000000000000000000602082015250565b60006125e0602183611eca565b91506125eb82612584565b604082019050919050565b6000602082019050818103600083015261260f816125d3565b9050919050565b7f4552433732313a20617070726f76652063616c6c6572206973206e6f7420746f60008201527f6b656e206f776e6572206f7220617070726f76656420666f7220616c6c000000602082015250565b6000612672603d83611eca565b915061267d82612616565b604082019050919050565b600060208201905081810360008301526126a181612665565b9050919050565b7f4552433732313a2063616c6c6572206973206e6f7420746f6b656e206f776e6560008201527f72206f7220617070726f76656400000000000000000000000000000000000000602082015250565b6000612704602d83611eca565b915061270f826126a8565b604082019050919050565b60006020820190508181036000830152612733816126f7565b9050919050565b7f4552433732313a20696e76616c696420746f6b656e2049440000000000000000600082015250565b6000612770601883611eca565b915061277b8261273a565b602082019050919050565b6000602082019050818103600083015261279f81612763565b9050919050565b7f4552433732313a2061646472657373207a65726f206973206e6f74206120766160008201527f6c6964206f776e65720000000000000000000000000000000000000000000000602082015250565b6000612802602983611eca565b915061280d826127a6565b604082019050919050565b60006020820190508181036000830152612831816127f5565b9050919050565b7f4e487b7100000000000000000000000000000000000000000000000000000000600052601160045260246000fd5b600061287282611f7a565b91507fffffffffffffffffffffffffffffffffffffffffffffffffffffffffffffffff8214156128a5576128a4612838565b5b600182019050919050565b600081905092915050565b60006128c682611ebf565b6128d081856128b0565b93506128e0818560208601611edb565b80840191505092915050565b60006128f882856128bb565b915061290482846128bb565b91508190509392505050565b7f4f776e61626c653a206e6577206f776e657220697320746865207a65726f206160008201527f6464726573730000000000000000000000000000000000000000000000000000602082015250565b600061296c602683611eca565b915061297782612910565b604082019050919050565b6000602082019050818103600083015261299b8161295f565b9050919050565b7f4552433732313a207472616e736665722066726f6d20696e636f72726563742060008201527f6f776e6572000000000000000000000000000000000000000000000000000000602082015250565b60006129fe602583611eca565b9150612a09826129a2565b604082019050919050565b60006020820190508181036000830152612a2d816129f1565b9050919050565b7f4552433732313a207472616e7366657220746f20746865207a65726f2061646460008201527f7265737300000000000000000000000000000000000000000000000000000000602082015250565b6000612a90602483611eca565b9150612a9b82612a34565b604082019050919050565b60006020820190508181036000830152612abf81612a83565b9050919050565b7f4f776e61626c653a2063616c6c6572206973206e6f7420746865206f776e6572600082015250565b6000612afc602083611eca565b9150612b0782612ac6565b602082019050919050565b60006020820190508181036000830152612b2b81612aef565b9050919050565b7f45524337323155524953746f726167653a2055524920736574206f66206e6f6e60008201527f6578697374656e7420746f6b656e000000000000000000000000000000000000602082015250565b6000612b8e602e83611eca565b9150612b9982612b32565b604082019050919050565b60006020820190508181036000830152612bbd81612b81565b9050919050565b7f4552433732313a20617070726f766520746f2063616c6c657200000000000000600082015250565b6000612bfa601983611eca565b9150612c0582612bc4565b602082019050919050565b60006020820190508181036000830152612c2981612bed565b9050919050565b7f4552433732313a207472616e7366657220746f206e6f6e20455243373231526560008201527f63656976657220696d706c656d656e7465720000000000000000000000000000602082015250565b6000612c8c603283611eca565b9150612c9782612c30565b604082019050919050565b60006020820190508181036000830152612cbb81612c7f565b9050919050565b600081519050919050565b600082825260208201905092915050565b6000612ce982612cc2565b612cf38185612ccd565b9350612d03818560208601611edb565b612d0c81611f0e565b840191505092915050565b6000608082019050612d2c600083018761200f565b612d39602083018661200f565b612d466040830185612125565b8181036060830152612d588184612cde565b905095945050505050565b600081519050612d7281611e30565b92915050565b600060208284031215612d8e57612d8d611dfa565b5b6000612d9c84828501612d63565b91505092915050565b7f4e487b7100000000000000000000000000000000000000000000000000000000600052601260045260246000fd5b7f4552433732313a206d696e7420746f20746865207a65726f2061646472657373600082015250565b6000612e0a602083611eca565b9150612e1582612dd4565b602082019050919050565b60006020820190508181036000830152612e3981612dfd565b9050919050565b7f4552433732313a20746f6b656e20616c7265616479206d696e74656400000000600082015250565b6000612e76601c83611eca565b9150612e8182612e40565b602082019050919050565b60006020820190508181036000830152612ea581612e69565b905091905056fea2646970667358221220c68966b2e229a8e93a261840568571522da52a29dd455e83b702594b3a68294064736f6c63430008090033",
  "linkReferences": {},
  "deployedLinkReferences": {}
}